{
  "abi": [
    {
      "inputs": [
        {
          "internalType": "uint256",
          "name": "duration",
          "type": "uint256"
        }
      ],
      "stateMutability": "nonpayable",
      "type": "constructor"
    },
    {
      "inputs": [],
      "name": "TICKET_PRICE",
      "outputs": [
        {
          "internalType": "uint256",
          "name": "",
          "type": "uint256"
        }
      ],
      "stateMutability": "view",
      "type": "function"
    },
    {
      "inputs": [],
      "name": "buy",
      "outputs": [],
      "stateMutability": "payable",
      "type": "function"
    },
    {
      "inputs": [],
      "name": "drawWinner",
      "outputs": [],
      "stateMutability": "nonpayable",
      "type": "function"
    },
    {
      "inputs": [],
      "name": "ticketingCloses",
      "outputs": [
        {
          "internalType": "uint256",
          "name": "",
          "type": "uint256"
        }
      ],
      "stateMutability": "view",
      "type": "function"
    },
    {
      "inputs": [
        {
          "internalType": "uint256",
          "name": "",
          "type": "uint256"
        }
      ],
      "name": "tickets",
      "outputs": [
        {
          "internalType": "address",
          "name": "",
          "type": "address"
        }
      ],
      "stateMutability": "view",
      "type": "function"
    },
    {
      "inputs": [],
      "name": "winner",
      "outputs": [
        {
          "internalType": "address",
          "name": "",
          "type": "address"
        }
      ],
      "stateMutability": "view",
      "type": "function"
    },
    {
      "inputs": [],
      "name": "withdraw",
      "outputs": [],
      "stateMutability": "nonpayable",
      "type": "function"
    },
    {
      "stateMutability": "payable",
      "type": "receive"
    }
  ],
  "bytecode": {
    "object": "0x608060405234801561001057600080fd5b5060405161044438038061044483398101604081905261002f91610042565b610039814261005b565b60025550610081565b60006020828403121561005457600080fd5b5051919050565b6000821982111561007c57634e487b7160e01b600052601160045260246000fd5b500190565b6103b4806100906000396000f3fe6080604052600436106100745760003560e01c8063a6f2ae3a1161004e578063a6f2ae3a14610103578063b2185bb11461010b578063dfbf53ae14610120578063fdbbfbc61461014057600080fd5b80631a95f15f146100885780633ccfd60b146100b657806350b44712146100cb57600080fd5b3661008357610081610156565b005b600080fd5b34801561009457600080fd5b506100a3662386f26fc1000081565b6040519081526020015b60405180910390f35b3480156100c257600080fd5b506100816101b8565b3480156100d757600080fd5b506100eb6100e63660046102e8565b6101fe565b6040516001600160a01b0390911681526020016100ad565b610081610156565b34801561011757600080fd5b50610081610228565b34801561012c57600080fd5b506001546100eb906001600160a01b031681565b34801561014c57600080fd5b506100a360025481565b662386f26fc10000341461016957600080fd5b600254421061017757600080fd5b600080546001810182559080527f290decd9548b62a8d60345a988386fc84ba6bc95484008f6362f93160ef3e5630180546001600160a01b03191633179055565b6001546001600160a01b031633146101cf57600080fd5b60405133904780156108fc02916000818181858888f193505050501580156101fb573d6000803e3d6000fd5b50565b6000818154811061020e57600080fd5b6000918252602090912001546001600160a01b0316905081565b6002546102379061012c610317565b421161024257600080fd5b6001546001600160a01b03161561025857600080fd5b600061026560014361032f565b40905060008160405160200161027d91815260200190565b60408051601f1981840301815291905280516020909101206000805491925082916102a89083610346565b815481106102b8576102b8610368565b600091825260209091200154600180546001600160a01b0319166001600160a01b03909216919091179055505050565b6000602082840312156102fa57600080fd5b5035919050565b634e487b7160e01b600052601160045260246000fd5b6000821982111561032a5761032a610301565b500190565b60008282101561034157610341610301565b500390565b60008261036357634e487b7160e01b600052601260045260246000fd5b500690565b634e487b7160e01b600052603260045260246000fdfea2646970667358221220b59ca1b431cfce7657e484fa1bdda6df510aafd3d62490908f815f7594bcb0ef64736f6c634300080a0033",
    "linkReferences": {}
  }
}